{
  "contractName": "TodoList",
  "abi": [
    {
      "constant": true,
      "inputs": [
        {
          "name": "",
          "type": "uint256"
        }
      ],
      "name": "todos",
      "outputs": [
        {
          "name": "description",
          "type": "string"
        },
        {
          "name": "completed",
          "type": "bool"
        }
      ],
      "payable": false,
      "stateMutability": "view",
      "type": "function",
      "signature": "0xbc8bc2b4"
    },
    {
      "constant": false,
      "inputs": [
        {
          "name": "_description",
          "type": "string"
        }
      ],
      "name": "createTodo",
      "outputs": [],
      "payable": false,
      "stateMutability": "nonpayable",
      "type": "function",
      "signature": "0xe34f1221"
    },
    {
      "constant": false,
      "inputs": [
        {
          "name": "_index",
          "type": "uint256"
        },
        {
          "name": "_description",
          "type": "string"
        }
      ],
      "name": "updateText",
      "outputs": [],
      "payable": false,
      "stateMutability": "nonpayable",
      "type": "function",
      "signature": "0xcd111614"
    },
    {
      "constant": false,
      "inputs": [
        {
          "name": "_index",
          "type": "uint256"
        }
      ],
      "name": "toggleCompleted",
      "outputs": [],
      "payable": false,
      "stateMutability": "nonpayable",
      "type": "function",
      "signature": "0x455f5024"
    }
  ],
  "bytecode": "0x608060405234801561001057600080fd5b5061053e806100206000396000f3fe6080604052600436106100615763ffffffff7c0100000000000000000000000000000000000000000000000000000000600035041663455f50248114610066578063bc8bc2b414610092578063cd1116141461013f578063e34f1221146101f9575b600080fd5b34801561007257600080fd5b506100906004803603602081101561008957600080fd5b50356102ac565b005b34801561009e57600080fd5b506100bc600480360360208110156100b557600080fd5b5035610306565b604051808060200183151515158152602001828103825284818151815260200191508051906020019080838360005b838110156101035781810151838201526020016100eb565b50505050905090810190601f1680156101305780820380516001836020036101000a031916815260200191505b50935050505060405180910390f35b34801561014b57600080fd5b506100906004803603604081101561016257600080fd5b8135919081019060408101602082013564010000000081111561018457600080fd5b82018360208201111561019657600080fd5b803590602001918460018302840111640100000000831117156101b857600080fd5b91908080601f0160208091040260200160405190810160405280939291908181526020018383808284376000920191909152509295506103bd945050505050565b34801561020557600080fd5b506100906004803603602081101561021c57600080fd5b81019060208101813564010000000081111561023757600080fd5b82018360208201111561024957600080fd5b8035906020019184600183028401116401000000008311171561026b57600080fd5b91908080601f0160208091040260200160405190810160405280939291908181526020018383808284376000920191909152509295506103f6945050505050565b60008054829081106102ba57fe5b60009182526020822060016002909202010154815460ff909116159190839081106102e157fe5b60009182526020909120600290910201600101805460ff191691151591909117905550565b600080548290811061031457fe5b60009182526020918290206002918202018054604080516001831615610100026000190190921693909304601f8101859004850282018501909352828152909350918391908301828280156103aa5780601f1061037f576101008083540402835291602001916103aa565b820191906000526020600020905b81548152906001019060200180831161038d57829003601f168201915b5050506001909301549192505060ff1682565b806000838154811015156103cd57fe5b906000526020600020906002020160000190805190602001906103f1929190610477565b505050565b60408051808201909152818152600060208083018290528154600181018084559280528351805193949360029092027f290decd9548b62a8d60345a988386fc84ba6bc95484008f6362f93160ef3e563019261045792849290910190610477565b50602091909101516001909101805460ff19169115159190911790555050565b828054600181600116156101000203166002900490600052602060002090601f016020900481019282601f106104b857805160ff19168380011785556104e5565b828001600101855582156104e5579182015b828111156104e55782518255916020019190600101906104ca565b506104f19291506104f5565b5090565b61050f91905b808211156104f157600081556001016104fb565b9056fea165627a7a72305820906f32bd08886b71e8a438a9ebb95fa8c158d195477d4a538df6730773bbbf410029",
  "source": "// SPDX-License-Identifier: MIT\r\n\r\npragma solidity >=0.4.22 <0.9.0;\r\n\r\ncontract TodoList {\r\n    struct Todo{\r\n        string description;\r\n        bool completed;\r\n    }\r\n    Todo[] public todos;\r\n\r\n    function createTodo(string memory _description) public{\r\n        todos.push(Todo(_description,false));\r\n    }\r\n    function updateText(uint _index,string memory _description) public {\r\n        todos[_index].description = _description;\r\n    }\r\n    function toggleCompleted(uint _index) public{\r\n        todos[_index].completed = !todos[_index].completed;\r\n    }\r\n}",
  "sourcePath": "C:/Users/joges/OneDrive/Github/dapp_todo/contracts/TodoList.sol",
  "compiler": {
    "name": "solc",
    "version": "0.5.0+commit.1d4f565a.Emscripten.clang"
  },
  "schemaVersion": "3.0.1",
  "updatedAt": "2022-07-02T04:42:23.853Z",
  "devdoc": {
    "methods": {}
  },
  "userdoc": {
    "methods": {}
  }
}