{
  "contractName": "TodoList",
  "abi": [
    {
      "constant": true,
      "inputs": [],
      "name": "taskCount",
      "outputs": [
        {
          "name": "",
          "type": "uint256"
        }
      ],
      "payable": false,
      "stateMutability": "view",
      "type": "function",
      "signature": "0xb6cb58a5"
    }
  ],
  "bytecode": "0x6080604052348015600f57600080fd5b50609e8061001e6000396000f3fe608060405260043610603f576000357c0100000000000000000000000000000000000000000000000000000000900463ffffffff168063b6cb58a5146044575b600080fd5b348015604f57600080fd5b506056606c565b6040518082815260200191505060405180910390f35b6000548156fea165627a7a723058208473033c6ec86fc76f7c576e190a3bfda4bcd643986210626c422da7d3e1456e0029",
  "source": "// SPDX-License-Identifier: MIT\r\n\r\npragma solidity >=0.4.22 <0.9.0;\r\n\r\ncontract TodoList {\r\n\r\n    uint public taskCount;\r\n    struct Todo{\r\n        string title;\r\n        string description;\r\n        bool completed;\r\n    }\r\n    // Todo[] public tasks;\r\n\r\n}",
  "sourcePath": "C:/Users/joges/OneDrive/Github/dapp_todo/contracts/TodoList.sol",
  "compiler": {
    "name": "solc",
    "version": "0.5.0+commit.1d4f565a.Emscripten.clang"
  },
  "schemaVersion": "3.0.1",
  "updatedAt": "2022-07-01T10:43:29.102Z",
  "devdoc": {
    "methods": {}
  },
  "userdoc": {
    "methods": {}
  }
}