{
  "contractName": "TodoList",
  "abi": [
    {
      "constant": true,
      "inputs": [
        {
          "name": "",
          "type": "uint256"
        }
      ],
      "name": "tasks",
      "outputs": [
        {
          "name": "id",
          "type": "uint256"
        },
        {
          "name": "title",
          "type": "string"
        },
        {
          "name": "description",
          "type": "string"
        },
        {
          "name": "completed",
          "type": "bool"
        }
      ],
      "payable": false,
      "stateMutability": "view",
      "type": "function",
      "signature": "0x8d977672"
    },
    {
      "constant": true,
      "inputs": [],
      "name": "taskCount",
      "outputs": [
        {
          "name": "",
          "type": "uint256"
        }
      ],
      "payable": false,
      "stateMutability": "view",
      "type": "function",
      "signature": "0xb6cb58a5"
    },
    {
      "inputs": [],
      "payable": false,
      "stateMutability": "nonpayable",
      "type": "constructor",
      "signature": "constructor"
    },
    {
      "constant": false,
      "inputs": [
        {
          "name": "_title",
          "type": "string"
        },
        {
          "name": "_description",
          "type": "string"
        }
      ],
      "name": "createTask",
      "outputs": [],
      "payable": false,
      "stateMutability": "nonpayable",
      "type": "function",
      "signature": "0x292a4585"
    }
  ],
  "bytecode": "0x608060405234801561001057600080fd5b506100946040805190810160405280600a81526020017f64756d6d79205461736b000000000000000000000000000000000000000000008152506040805190810160405280600581526020017f4c6f72656d000000000000000000000000000000000000000000000000000000815250610099640100000000026401000000009004565b6101fd565b6100a1610137565b50604080516080810182526000805480835260208084018781528486018790526060850184905291835260018082529490922083518155905180519394859492936100f193918501920190610162565b506040820151805161010d916002840191602090910190610162565b50606091909101516003909101805460ff1916911515919091179055505060008054600101905550565b6080604051908101604052806000815260200160608152602001606081526020016000151581525090565b828054600181600116156101000203166002900490600052602060002090601f016020900481019282601f106101a357805160ff19168380011785556101d0565b828001600101855582156101d0579182015b828111156101d05782518255916020019190600101906101b5565b506101dc9291506101e0565b5090565b6101fa91905b808211156101dc57600081556001016101e6565b90565b6105af8061020c6000396000f3fe6080604052600436106100565763ffffffff7c0100000000000000000000000000000000000000000000000000000000600035041663292a4585811461005b5780638d97767214610197578063b6cb58a5146102b1575b600080fd5b34801561006757600080fd5b506101956004803603604081101561007e57600080fd5b81019060208101813564010000000081111561009957600080fd5b8201836020820111156100ab57600080fd5b803590602001918460018302840111640100000000831117156100cd57600080fd5b91908080601f016020809104026020016040519081016040528093929190818152602001838380828437600092019190915250929594936020810193503591505064010000000081111561012057600080fd5b82018360208201111561013257600080fd5b8035906020019184600183028401116401000000008311171561015457600080fd5b91908080601f0160208091040260200160405190810160405280939291908181526020018383808284376000920191909152509295506102d8945050505050565b005b3480156101a357600080fd5b506101c1600480360360208110156101ba57600080fd5b5035610376565b60405180858152602001806020018060200184151515158152602001838103835286818151815260200191508051906020019080838360005b838110156102125781810151838201526020016101fa565b50505050905090810190601f16801561023f5780820380516001836020036101000a031916815260200191505b50838103825285518152855160209182019187019080838360005b8381101561027257818101518382015260200161025a565b50505050905090810190601f16801561029f5780820380516001836020036101000a031916815260200191505b50965050505050505060405180910390f35b3480156102bd57600080fd5b506102c66104b7565b60408051918252519081900360200190f35b6102e06104bd565b5060408051608081018252600080548083526020808401878152848601879052606085018490529183526001808252949092208351815590518051939485949293610330939185019201906104e8565b506040820151805161034c9160028401916020909101906104e8565b50606091909101516003909101805460ff1916911515919091179055505060008054600101905550565b600160208181526000928352604092839020805481840180548651600296821615610100026000190190911695909504601f810185900485028601850190965285855290949193929091908301828280156104125780601f106103e757610100808354040283529160200191610412565b820191906000526020600020905b8154815290600101906020018083116103f557829003601f168201915b50505060028085018054604080516020601f60001961010060018716150201909416959095049283018590048502810185019091528181529596959450909250908301828280156104a45780601f10610479576101008083540402835291602001916104a4565b820191906000526020600020905b81548152906001019060200180831161048757829003601f168201915b5050506003909301549192505060ff1684565b60005481565b6080604051908101604052806000815260200160608152602001606081526020016000151581525090565b828054600181600116156101000203166002900490600052602060002090601f016020900481019282601f1061052957805160ff1916838001178555610556565b82800160010185558215610556579182015b8281111561055657825182559160200191906001019061053b565b50610562929150610566565b5090565b61058091905b80821115610562576000815560010161056c565b9056fea165627a7a723058200a168d61f8bf1059d47b3f3164e5251fc59dac0440349856cd233736d624a04c0029",
  "source": "// SPDX-License-Identifier: MIT\r\n\r\npragma solidity >=0.4.22 <0.9.0;\r\n\r\ncontract TodoList {\r\n\r\n    uint public taskCount;\r\n    struct Todo{\r\n        uint id;\r\n        string title;\r\n        string description;\r\n        bool completed;\r\n    }\r\n    mapping(uint => Todo) public tasks;\r\n    // Todo[] public tasks;\r\n\r\n    constructor() public {\r\n        createTask(\"dummy Task\", \"Lorem\");\r\n    }\r\n\r\n    function createTask(string memory _title , string memory _description) public{\r\n\r\n        Todo memory newTask = Todo(taskCount,_title,_description,false);\r\n        tasks[taskCount]= newTask;\r\n        taskCount++;\r\n        // todos[_id] = newTask;\r\n        // tasks.push(newTask);\r\n    }\r\n}",
  "sourcePath": "C:/Users/joges/OneDrive/Github/dapp_todo/contracts/TodoList.sol",
  "compiler": {
    "name": "solc",
    "version": "0.5.0+commit.1d4f565a.Emscripten.clang"
  },
  "schemaVersion": "3.0.1",
  "updatedAt": "2022-07-01T11:30:59.664Z",
  "devdoc": {
    "methods": {}
  },
  "userdoc": {
    "methods": {}
  }
}